:020000040800F2
:1000000050A701209D010008C50C0108EDC600089D
:1000100091090108C5250008D98D010800000000DC
:10002000000000000000000000000000F12E0108A8
:100030001140000800000000411E0108194201089B
:10004000B7010008B7010008B7010008B7010008B0
:10005000B5440008B7010008B7010008B70100085F
:10006000B70100081D42000829420008B701000836
:10007000E5350008F5350008B7010008B7010008AC
:10008000B7010008B7010008B7010008B701000870
:10009000C9250008D9250008B70100083542000825
:1000A000B7010008B7010008B7010008B701000850
:1000B000B7010008B7010008B7010008B701000840
:1000C000B701000801C70008F1C60008C52C0108E7
:1000D000B7010008B7010008B7010008155301086F
:1000E000B7010008B7010008B7010008B701000810
:1000F000B701000819430108B701000805360008D8
:10010000B7010008B701000809430108B70100085A
:10011000B7010008B7010008B7010008B7010008DF
:100120001536000825360008B701000835360008E6
:10013000B7010008B7010008B7010008B7010008BF
:10014000E9250008F9250008B7010008E9100108B1
:10015000B701000845360008B7010008355301080B
:10016000B7010008B7010008B7010008B70100088F
:10017000B7010008B7010008B7010008000000003F
:10018000B7010008B7010008DFF80CD001F0C0F893
:1001900000480047F5A8010850A7012006488047FD
:1001A00006480047FEE7FEE7FEE7FEE7FEE7FEE75C
:1001B000FEE7FEE7FEE7FEE7F542010889010008D9
:1001C00070B405880E884468D1F804C05368B542FD
:1001D00008D140884988884201BF11888D425188E2
:1001E000884203D070BC6FF00200704705FB00F13D
:1001F000880827D094ED001ADCED000A94ED010A7E
:10020000DCED011A31EE201AD4ED020A70EE211A4B
:100210009CED020A83ED001AC3ED011A94ED031A56
:10022000DCED031A30EE800A401E71EE210A83EDE8
:10023000020A04F11004C3ED030A03F110030CF1E8
:10024000100CD7D111F0030030D0B0F1004F30D2F4
:1002500000282BDD211F1B1FACF1040210F0010F41
:100260000AD091ED010AD2ED010A091D121D30EEEE
:10027000200A83ED010A1B1D400817D091ED010AE9
:10028000D2ED010A401E30EE200A83ED010A91ED05
:10029000020AD2ED020A01F1080102F1080230EE71
:1002A000200A83ED020A03F10803E7D170BC0020A5
:1002B0007047B4EC010A401EFCEC010A30EE200A43
:1002C000A3EC010AF5D1F1E7018042804360704759
:1002D0002DE9F34F84B0049840680090486801907D
:1002E0000498B0F800E04588DFEDFE0A0020029097
:1002F000B0EE600AAE4506D108884988884204BF3E
:100300007146864504D06FF0020006B0BDE8F08F5C
:1003100001985FEA010C18BFB7EE001A3DD000BF8C
:10032000BEEB0C0117D0B1F1004F80F01F82002905
:1003300011DD021F11F0010F1CBFC2ED010A121DD9
:100340004B1006D0C2ED010AC2ED020A08325B1E54
:10035000F8D100EB8100BCF10102A0EC011A19D028
:10036000B2F1004F80F00882002A13DD031F12F063
:10037000010F1CBFC3ED010A1B1D511008D000BFA7
:10038000C3ED010AC3ED020A491E03F10803F7D1C8
:1003900000EB8200BCF1010CC2D14FF000080395C4
:1003A000002D14BFB0EE602A002000F0BF8100BF16
:1003B000009908FB05F001EB800B0199DBED002AA9
:1003C00001EB80000346F0EE421AC64552D9AEEB6F
:1003D0000802ABEB850112F0010F17D001EB85018C
:1003E00091ED000AB5EEC00AF1EE10FA07DDB4EEA9
:1003F000E10AF1EE10FA09DDF0EE401A06E0B1EE86
:10040000400AF4EEC01AF1EE10FAF5D3521031D0D2
:1004100001EB850C9CED000AB5EEC00AF1EE10FA76
:1004200005DDB4EEE10AF1EE10FA09DD06E0B1EE09
:10043000400AF4EEC01AF1EE10FA01D2F0EE401AC2
:1004400001EBC50191ED000AB5EEC00AF1EE10FA1C
:1004500005DDB4EEE10AF1EE10FA09DD06E0B1EED9
:10046000400AF4EEC01AF1EE10FA01D2F0EE401A92
:10047000521ECDD1F5EEC01AF1EE10FA00F07381E4
:10048000F5EEC02A0126F1EE10FA0099D4BFB1EEC4
:10049000620AB0EE620AB4EE610AF1EE10FA1CBF15
:1004A000AEEB0802B2F1010C47D005FB08F201EBFC
:1004B000820292ED001A00BFB0EE410A05FB06F47D
:1004C000B5EEC00A00EB8404F1EE10FACCBFF0EEFA
:1004D000400AF1EE400AF4EE610AF1EE10FA28D17A
:1004E000B5EB080C11D0BCF1004F7DD2BCF1000F70
:1004F0000BDD00BF92ED000AD1ED000ABCF1010C4A
:10050000E2EC010AA1EC010AF4D129000ED0B1F10C
:10051000004F6AD2002909DD94ED000AD0ED000AEF
:10052000491EE4EC010AA0EC010AF5D10120029079
:100530000BE0761CBCF1010CBED10298012804D05E
:10054000F5EEC02AF1EE10FA7ED09BED000AB5EB75
:1005500008009A465946064622D0B0F1004F74D2A0
:1005600000281DDD091F10F0010F06D0F0EE400A33
:1005700080EEA01A81ED011A091D401010D000BFB5
:10058000D1ED010A401E80EE801A81ED011A91ED35
:10059000021AC1EE000AC1ED020A01F10801EFD111
:1005A000280026D0B0F1004F7ED2002821DDAAF12C
:1005B000040110F0010F06D0D1ED010A80EE801A7F
:1005C00081ED011A091D401013D000BFD1ED010AC1
:1005D000401E80EE801A81ED011AD1ED020A80EEF4
:1005E000801A81ED021A01E0CBE0D6E001F10801AA
:1005F000ECD1DDE900124FF000095FEA0E0773D07D
:10060000C14504BF01EB860102EB850274D091ED78
:10061000000ADC465046331E35D01C46B6F1004F6A
:100620007ED2002C2FDD0B1FABF1040C16F0010F56
:100630000FD0F0EE400ADCED011AB0EE601A00EEC9
:10064000E11A83ED011A01E08DE0B1E01B1D0CF110
:10065000040C741015D000BFD3ED010A9CED011AF3
:1006600040EE410AC3ED010AD3ED020A9CED021AE5
:100670000CF1080C40EE410AC3ED020A0833641E77
:10068000EAD101EB86012B0036D0B3F1004F72D2D4
:10069000002B31DDA2F1040CAAF1040013F0010FCC
:1006A0000CD0DCED010A00E08BE090ED011A001D9A
:1006B00040EE410ACCED010A0CF1040C5C1019D09B
:1006C000DCED010A90ED011A40EE410ACCED010A81
:1006D000DCED020A90ED021A083040EE410ACCED42
:1006E000020A03E0000000000DE005E0641E0CF1CA
:1006F000080CE5D102EB830201EB88017F1E09F1B2
:1007000001097FF47DAF009808F10108001D0090F9
:100710000398401E03907FF44BAE0299012900E03C
:1007200058E004BF06B0BDE8F08F00BFB5EEC00AC8
:10073000F1EE10FA7FF4E9AD04990EFB05F3002BFE
:100740004A684FF000010BD902EB810C9CED000AC6
:10075000B5EEC00AF1EE10FA02D1491C8B42F3D873
:100760008B427FF4D2AD6FF00400CEE5E0EC010ADD
:10077000491EFBD1EFE538E0E0EC010A521EFBD147
:1007800008E692ED000AD1ED000ABCF1010CE2ECA2
:10079000010AA1EC010AF4D1B7E694ED000AD0ED0C
:1007A000000A491EE4EC010AA0EC010AF5D1BDE6FD
:1007B000D1ED000A401E80EE801AA1EC011AF7D19B
:1007C000EEE6D3ED000A401E80EE801AA3EC011A7B
:1007D000F7D10EE7BCEC011AD1ED000A5B1E40EE2A
:1007E000410AE1EC010AF5D14DE7B0EC011AD2ED76
:1007F000000A5B1E40EE410AE2EC010AF5D17BE7FC
:100800002DE9F04F82B04668536801930588478808
:100810004B88002000900888874201BFB2F800C0D2
:100820006545528893421EBF6FF0020002B0BDE8DA
:10083000F08F9FED412A4FEA970EC7F3400B00BFA0
:10084000DDE9000202EB800A4A6898464FF0000991
:10085000B0EE420AB4465FEA0E0025D092ED001ACF
:10086000DCED001A02EB8302DCED010A01EE810AE5
:1008700092ED001A02EB8302401ED2ED001A02EB49
:10088000830200EE810A9CED021ADCED030A0004EB
:100890000CF1100C000C01EE210A92ED001A02EB93
:1008A000830200EE810AD9D117F0030026D0ACF103
:1008B0000404A2EB830210F0010F08D002EB8302C4
:1008C000D4ED010A92ED001A241D00EE810A5FEAC0
:1008D0000B0013D002EB830CD4ED010A9CED001A3F
:1008E00002EBC302401E00EE810AD4ED020A92ED33
:1008F000001A04F1080400EE810AEBD109F10100AD
:10090000AAEC010A1FFA80F9486800EB8902A8F1F5
:1009100001001FFA80F8B8F1000F99D1009806EB9A
:100920008706184480B20090681E05042D0C87D1FC
:1009300002B00020BDE8F08F0000000070B4058810
:100940000E884468D1F804C05368B54208D1408885
:100950004988884201BF11888D425188884203D05E
:1009600070BC6FF00200704705FB00F1880827D0CB
:1009700094ED001ADCED000A94ED010ADCED011A99
:1009800031EE601AD4ED020A70EE611A9CED020A93
:1009900083ED001AC3ED011A94ED031ADCED031A7E
:1009A00030EEC00A401E71EE610A83ED020A04F1C6
:1009B0001004C3ED030A03F110030CF1100CD7D19E
:1009C00011F0030030D0B0F1004F30D200282BDD01
:1009D000211F1B1FACF1040210F0010F0AD091ED92
:1009E000010AD2ED010A091D121D30EE600A83EDE5
:1009F000010A1B1D400817D091ED010AD2ED010A32
:100A0000401E30EE600A83ED010A91ED020AD2ED3C
:100A1000020A01F1080102F1080230EE600A83EDDA
:100A2000020A03F10803E7D170BC00207047B4EC60
:100A3000010A401EFCEC010A30EE600AA3EC010A38
:100A4000F5D1F1E72DE9F04F02884768B0F8028050
:100A50004888D1F8049082B04FF0000A16468242CE
:100A600007BF098888456FF0020002B018BFBDE8D3
:100A7000F08F4FEA980B02EB42000190C8F3400060
:100A8000CDF8000009EB8A01BBF1000F33D00198CB
:100A900001EB820C01EB80043B46E64601EBC2050C
:100AA0004FEA0B0093ED000A401E81ED000A93ED22
:100AB000010A01EB02118CED000A93ED020A0CEB26
:100AC000021C85ED000A93ED030A05EB021584ED87
:100AD000000A04EB021403F11003E3D10EEB8200D1
:100AE00000EB820000EB8201ABF10100504307EB09
:100AF0000B1701EB001118F0030C21D03B1FA1EBE9
:100B000082011CF0010F06D093ED010A01EB820176
:100B10001B1D81ED000A009880B100BF93ED010A12
:100B200001EB820401EBC20184ED000A93ED020A9D
:100B3000401E81ED000A03F10803EFD107EB8C079B
:100B40000AF101001FFA80FA701E0604360C99D1D2
:100B500002B00020BDE8F08F2DE9F05F05460020CF
:100B600092469B4688460646814640241BE028461E
:100B700041464746224600F094FA53465A46C01A68
:100B8000914110D311461846224600F07BFA2D1AE7
:100B900067EB01084F4622460120002100F072FA5F
:100BA00017EB00094E41201EA4F10104DFDC48468A
:100BB00031462A464346BDE8F09F40EA01039B07C1
:100BC00003D009E008C9121F08C0042AFAD203E0C2
:100BD00011F8013B00F8013B521EF9D27047D2B226
:100BE00001E000F8012B491EFBD270470022F6E716
:100BF00010B513460A4604461946FFF7F0FF204693
:100C000010BD10B5002200E0521C835C8C5CA34236
:100C100001D1002BF8D1D8B2E1B2401A10BD034681
:100C200011F8012B00F8012B002AF9D11846704762
:100C30002DE9FE4F804681EA0300C00F0C4600906C
:100C400021F0004123F00045B8EB0200A94105D294
:100C50004046214690461C460B46024623F0004083
:100C6000104347D0270DC7F30A00C3F30A5102907F
:100C7000401A019040286BDAC3F3130040F4801B44
:100C80000098924620B10023D2EB030A63EB0B0BD2
:100C900001985946C0F14002504600F0F3F906466B
:100CA0000D4650465946019A00F00BFA10EB080029
:100CB0006141002487EA115284EAE7731A4340D065
:100CC000009A62B3019A012A4FEA075215DC001B11
:100CD00061EB02014FF0004202EA0752CDE9004207
:100CE000001C41F5801132462B4600F042FA03B059
:100CF000BDE8F08F40462146F9E7001B61EB020199
:100D0000001C41F5801300185B412018A2F5001764
:100D100047EB030140EAD570B6196D4111E06D084B
:100D20004FEA360645EAC0754FEA0752001B61EBF1
:100D30000201001C41F5801149084FEA30000019FA
:100D4000514132462B4603B0BDE8F04F00F002BAE5
:100D50000098012240000023D0EB020263EBE07315
:100D6000009821464FEAE074B8EB000061EB040103
:100D7000E9E783F000435BE781F0004158E72DE9A4
:100D8000FE4F81EA030404F0004421F00041009486
:100D90004FF0000B23F0004350EA01045ED052EA0A
:100DA00003045BD0C3F30A54C1F30A552C44A4F2E4
:100DB000F3340194A0FB0254C1F3130141F48011F8
:100DC000C3F3130343F4801301FB024400FB034EFF
:100DD000840A970A44EA815447EA8357A4FB0768C8
:100DE00002958D0A05FB07854FEA932C04FB0C54F2
:100DF0002705029D4FEA065847EA1637B5EB080566
:100E00006EEB070C870E920E47EA811742EA8312B7
:100E1000A7FB0201B6EB0B0164EB00042B0D43EAC8
:100E20000C335E1844EB1C50DA465146E7FB0201D6
:100E3000C5F313044FEA0B3343EA14534FEA043269
:100E4000019C43EA0603A4F10C040294009CCDE942
:100E500000B400F08EF903B0BDE8F08F0020014629
:100E6000F9E72DE9F04D81EA030404F0004B21F08D
:100E7000004514464FF0000A23F0004150EA0502F5
:100E800020D054EA01021DD0C5F30A570246C5F32B
:100E90001303C1F31300C1F30A5640F4801543F461
:100EA0008013A7EB0608101BD64608F2FD3873EB3B
:100EB000050002D308F1010801E092185B41B8F186
:100EC000000F03DA00200146BDE8F08D00204FF44A
:100ED0008011064684460EE0171B73EB050705D309
:100EE000121B63EB050306434CEA010C49084FEA69
:100EF000300092185B4150EA0107EDD152EA03003D
:100F000012D082EA040083EA0501084305D0101BD1
:100F1000AB4106D20122002306E000224FF000433D
:100F200002E06FF0010253101AEB06004CEB08517F
:100F300010EB0A0041EB0B01BDE8F04D00F00AB9DF
:100F400030B5041E71F1000404DB4FF00044404250
:100F500064EB0101141E73F1000405DB1C464FF025
:100F60000043524263EB0403101A8B4101D301206A
:100F700030BD002030BD30B5041E71F1000404DB2B
:100F80004FF00044404264EB0101141E73F1000471
:100F900005DB1C464FF00043524263EB0403801A0A
:100FA000994101D2012030BD002030BD0EB5C10FE6
:100FB00080EAE0700844CA07002140F233438DE81C
:100FC0000E000A460B4600F0D4F803B000BD0EB583
:100FD00040F2334102910021CDE900110A460B464F
:100FE00000F0C7F803B000BD70B5C1F30A5201F0BC
:100FF00000450024C1F3130140F2FF3341F4801196
:101000009A4201DA002070BD40F233439A42A2F2C4
:10101000334203DC524200F044F800E090402C439D
:10102000F1D0404270BD00F0004230F000400AD0E4
:10103000C10D01F56071C0F3160042EA0151C2080A
:1010400040071143704700200146704701F00043FC
:1010500030B421F0004150EA010206D00A0DA2F599
:101060006072C1F31301002A02DC30BC002070471B
:10107000440F44EAC104C100E01830BC00EBC25088
:1010800000F031B8202A04DB203A00FA02F10020F7
:1010900070479140C2F1200320FA03F319439040B6
:1010A0007047202A04DB203A21FA02F00021704721
:1010B00021FA02F3D040C2F12002914008431946C0
:1010C0007047202A06DBCB17203A41FA02F043EAA8
:1010D000E07306E041FA02F3D040C2F120029140F1
:1010E0000843194670470029A8BF7047401C4900B3
:1010F00008BF20F00100704710B4B0FA80FC00FA7D
:101100000CF050EA010404BF10BC704749B1CCF1A7
:10111000200421FA04F411FA0CF118BF0121214333
:101120000843A3EB0C01CB1D4FEA00614FEA1020EE
:1011300042BF002010BC704700EBC3501044002990
:10114000A4BF10BC7047401C490008BF20F001003C
:1011500010BC704710B5141E73F1000408DA401C6F
:1011600041F1000192185B411A4301D120F00100C6
:1011700010BD2DE9F04D92469B4611B1B1FA81F2B6
:1011800002E0B0FA80F220329046FFF77BFF04467F
:101190000F4640EA0A0041EA0B0153465A4608430B
:1011A00013D0114653EA010019D0C8F1400250464D
:1011B000FFF777FF05460E46504659464246FFF771
:1011C00061FF084305D0012004E020463946BDE810
:1011D000F08D0020054346EAE0762C4337430A9819
:1011E0006305E40AA0EB08000022FD0A44EA475424
:1011F0000A3002D500200146E9E7010510196941CE
:10120000DDE9084500196941BDE8F04DA2E72DE987
:10121000F04D00231A461B1A8A4103DB00200146C9
:10122000BDE8F08DC1F30A52C1F3130141F48015FA
:101230004FF0000BD10702D100186D41521E00275C
:10124000044640F2FF11384601EB620A3E468046F2
:10125000024600204FF48011FFF723FFC2197141AD
:10126000BB1846EB0100B4EB030C75EB000C04D388
:10127000E41A65EB000517460E46241908F1010033
:101280006D4180463428E3DDF91946EB0600091B61
:10129000A84103D24FF0FF32134601E0002213466B
:1012A0001BEB070046EB0A51BDE8F04DFFF752BFBC
:1012B00030B5041E71F1000404DB4FF000444042DD
:1012C00064EB0101141E73F1000405DB1C464FF0B2
:1012D0000043524263EB04038B4208BF824230BD9D
:1012E00030B5041E71F1000404DB4FF000444042AD
:1012F00064EB0101141E73F1000405DB1C464FF082
:101300000043524263EB0403994208BF904230BD50
:101310001CB509480090094801900546009C06E06C
:10132000E06840F0010394E8070098471034AC42AD
:10133000F6D3FEF72DFF00009C1C0208DC1C0208FF
:1013400070B58C1810F8015B15F0070301D110F887
:10135000013B2A1106D110F8012B03E010F8016BB4
:1013600001F8016B5B1EF9D12B0705D40023521E37
:101370000DD401F8013BFAE710F8013BCB1A921C9F
:1013800003E013F8015B01F8015B521EF9D5A1429D
:10139000D8D3002070BD000082B08DED010A9DED14
:1013A000010AB5EE400AF1EE10FA05DDFFE79DED0A
:1013B000010A8DED000A06E09DED010AB1EE400A3A
:1013C0008DED000AFFE79DED000A02B070470000B6
:1013D00080B5BCB04CF22030C2F201000078002889
:1013E00000F0D584FFE74CF26450C2F201000068BF
:1013F000007D012840F0CB84FFE740F24750C2F265
:1014000000000078032807D1FFE740F23051C2F214
:1014100000010020088007E040F23052C2F20002D2
:101420001088411C1180FFE740F24751C2F20001D1
:101430003591B1F815004CF22D32C2F2010236920C
:1014400092F82E3018444CF2080CC2F2010CBCF891
:101450000030184440F23053C2F20003B3F800E009
:10146000704400EE100AB8EEC00A9FEDE81A80EE54
:10147000010A10EE100AC1F81100B1F8630092F8E9
:101480002EE07044BCF800C060441B88184400EE95
:10149000100AB8EEC00A80EE010A10EE100AC1F878
:1014A0005F001368D06801EE103A00EE100AD1F820
:1014B000110002EE100A20EE020A30EE010A10EED0
:1014C000103A084640F8013F3790D2F804C013693B
:1014D00001EE10CA00EE103AD1F8113002EE103AC7
:1014E00020EE020A30EE010A10EE103A43609368D3
:1014F000526901EE103A00EE102AD1F8111002EEF6
:10150000101A20EE020A30EE010A10EE101A816065
:10151000036842688168C06800EE103A00EE902AC5
:1015200001EE101A01EE900A02F030FE379810EE2C
:10153000101AC160C06840F23851C2F20001086060
:1015400000208DF8EF00FFE79DF8EF004CF22D3101
:10155000C2F2010191F82C10884280F25B81FFE712
:101560004CF22D30C2F2010090F82D0006281AD15D
:10157000FFE74CF22D30C2F2010090F82C00032856
:1015800011D1FFE74CF22D31C2F201014CF6CD40F2
:10159000C3F64C600862086A48624CF29C40C4F290
:1015A0002000C861FFE74CF22D30C2F201008269D1
:1015B000C16901EE102A00EE101A40F24751C2F242
:1015C0000001D1F85F1002EE101A20EE020A30EE90
:1015D000011A9DF8EF1000EE101AB8EEC00A90F84C
:1015E0002C1002EE101AB8EEC23A9FED892A82EE54
:1015F000032A20EE020A30EE010A8DED3A0A90F835
:101600002C00032807DCFFE74CF22D31C2F2010168
:10161000086A4862FFE74CF22D30C2F20100016A0D
:10162000426A00EE101A9DF8EF104B1C03F0010304
:1016300001EE103AB8EEC12A01EE102A01F00101C4
:1016400003EE101AB8EEC33A21EE031A20EE020A96
:1016500030EE010A8DED390A806A00EE100A9DF81D
:10166000EF0000F0010001EE100AB8EEC11A20EE02
:10167000010A8DED380A40F24751C2F2000151F8DB
:10168000010F3391FFF7CFFC41EC100B8DED2C0BCC
:101690003998FFF7C8FC41EC100B8DED2A0B3A98F6
:1016A000FFF7C1FC41EC100B1EF08EFA9DED2A1BDA
:1016B00051EC110B53EC102BFFF761FB9DED2C0B44
:1016C00041EC110B53EC112B51EC100BFFF751FBBC
:1016D00041EC100B51EC100BFFF7B8FC01463398AE
:1016E0009DF8EF3000F11E0234921B01D15040688A
:1016F000FFF799FC41EC100B8DED300B3998FFF79B
:1017000092FC41EC100B8DED2E0B3A98FFF78BFC01
:1017100041EC100B1EF010FD9DED2E1B51EC110B3A
:1017200053EC102BFFF72BFB9DED300B41EC110B15
:1017300053EC112B51EC100BFFF71BFB41EC100B82
:1017400051EC100BFFF782FC3499024633989DF858
:10175000EF3001EB03135A60806800EE100A9DED34
:10176000381A30EE010A9DF8EF0001EB001210EE7E
:10177000100A90609DF8EF2001EB021012018958C9
:1017800000EE101A42688168C06800EE902A01EEEF
:10179000101A01EE900A02F0F9FC34989DF8EF104F
:1017A00000EB011210EE101AD1609DF8EF1000EB63
:1017B0000110C06800EE100A40F23850C2F200007A
:1017C00090ED001AB4EE410AF1EE10FA17DAFFE7D5
:1017D0009DF8EF1040F24750C2F2000000EB0110FC
:1017E000D0F82B0040F23851C2F2000108609DF899
:1017F000EF004CF22C31C2F201010870FFE7FFE765
:101800009DF8EF0001308DF8EF009DE600007A446E
:10181000DB0FC9404CF22C33C2F201031A7840F2BC
:101820004750C2F2000000F11F01120151F802C03E
:101830004CF25D32C2F20102C2F81AC093F800C045
:1018400001EB0C1CDCF804C0C2F81EC01B7801EBD5
:1018500003118968C2F822100078032840F0D48070
:10186000FFE74CF22C31C2F201010A7840F24750F6
:10187000C2F200001F3000EB0212D26800EE102A04
:10188000BEEE001A30EE010A4CF22832C2F201021A
:1018900082ED000A097800EB0110806840F23451B3
:1018A000C2F20001086040F23C50C2F20000807AAF
:1018B000012826DBFFE74CF22830C2F2010090ED50
:1018C000000A40F23450C2F20000D0ED000A40F2AB
:1018D0000400C2F20000008801EE100AB8EE411ABE
:1018E00040F24750C2F200002990D0F8750001EE96
:1018F000900A02F057FF299910EE100AC1F87900FA
:1019000037E04CF22830C2F2010090ED000A8DED74
:10191000240A40F23450C2F2000090ED000A8DED2E
:10192000250A40F20400C2F200000088FFF74FFBD6
:1019300041EC100B8DED260B40F24750C2F2000037
:101940002890D0F87500FFF76EFB9DED240ADDEDC1
:10195000250A9DED261B41EC120B17F0DDFE51EC24
:10196000100BFFF773FB289900EE100AC1F87900FD
:10197000FFE740F23450C2F200000068FFF753FB6B
:1019800041EC100B8DED200B4CF22830C2F201001F
:1019900022900068FFF747FB9DED200B41EC110BF7
:1019A0001DF0BAFE51EC100BFFF750FB22990246D6
:1019B0004CF22430C2F20100026091ED000A40F2C4
:1019C0000401C2F20001098801EE101AF8EE410A82
:1019D00090ED001A40F24750C2F200002390D0F878
:1019E000790002EE100A31EE021A02F09DFF2399EF
:1019F000BDEEC00A10EE100A4CF20802C2F201025B
:101A0000108002200870FFE74CF22C30C2F2010077
:101A10000690017840F24750C2F200001F901F303C
:101A2000079000EB0110090101914068FFF7FBFAF4
:101A3000024607980B46019943EC102B8DED020BE3
:101A40004058FFF7F0FA9DED020B41EC110B1DF031
:101A500063FE51EC100B9FEDDC0B53EC102B1A9333
:101A60001992FFF78CF941EC100B51EC100B9FED24
:101A7000D80B53EC102B1C931B92FFF7F2F941EC9F
:101A8000100B8DED040B41F28C30C2F200001E9061
:101A90000068008F00EE100AB8EEC00A9FEDCE1A63
:101AA0008DED101A20EE010A10EE100AFFF7BBFAB6
:101AB0009DED041B41EC100B51EC110B53EC102B62
:101AC000FFF7B6F841EC100B51EC100BFFF7BEFA24
:101AD00006991F9B02460798C3F86520097800EB1A
:101AE00001118868C9680891FFF79DFA02460898B5
:101AF00009920A46099942EC101B8DED0A0BFFF77B
:101B000092FA9DED0A0B41EC110B1DF005FE199A9E
:101B10001A9B51EC100BFFF732F91B9A1C9B41ECFE
:101B2000100B51EC100BFFF79CF941EC100B51EC32
:101B3000100BFFF78BFA01461F98C0F8691050F898
:101B4000011F1D900C914068FFF76DFA02460C983A
:101B50000D920A460D9942EC101B8DED0E0BFFF70E
:101B600062FA9DED0E0B41EC110B1DF0D5FD199A9B
:101B70001A9B51EC100BFFF702F91B9A1C9B41ECCE
:101B8000100B51EC100BFFF76CF99DED101A02468B
:101B90001E9811920A46119942EC101B8DED120B02
:101BA0000068008F00EE100AB8EEC00A20EE010AAD
:101BB00010EE100AFFF737FA9DED121B41EC100BE7
:101BC00051EC110B53EC102BFFF732F841EC100BDA
:101BD00051EC100BFFF73AFA1D99C1F8160088680E
:101BE000C9681491FFF71FFA0246149815920A4625
:101BF000159942EC101B8DED160BFFF714FA9DEDB5
:101C0000160B41EC110B1DF087FD199A1A9B51EC34
:101C1000100BFFF7B4F81B9A1C9B41EC100B51EC16
:101C2000100BFFF71EF941EC100B51EC100BFFF7F6
:101C30000DFA1D9B1E9902461F98C3F81A200968C9
:101C4000496B00EE101AD0F8650001EE100A30EE74
:101C5000410AFFF7A1FBB3EE0E1AB4EE410AF1EE12
:101C600010FA5DDAFFE741F28C30C2F20000006842
:101C7000C06A00EE100A40F24750C2F20000D0F8ED
:101C8000690001EE100A30EE010AFFF785FBB3EEA2
:101C90000E1AB4EE410AF1EE10FA41DAFFE74CF207
:101CA0002D30C2F20100C06900EE100AFFF774FB8C
:101CB0009FED4A1AB4EE410AF1EE10FA0CDCFFE790
:101CC00040F24750C2F20000D0F8650040F23C51AB
:101CD000C2F2000108600BE040F24750C2F200007F
:101CE000D0F8170040F23C51C2F200010860FFE753
:101CF00040F24750C2F20000D0F86910D0F87900E5
:101D000000EE101A01EE100A30EE010A10EE100A71
:101D100080F0004040F23C51C2F200014860FFE711
:101D20004CF22D30C2F2010090F82F0038B3FFE7DB
:101D300040F24750C2F20000D0F80D0000EE100A49
:101D40009FED271AB4EE410AF1EE10FA17DBFFE718
:101D500040F24750C2F20000D0F80D0000EE100A29
:101D6000B1EE0E1AB4EE410AF1EE10FA07DCFFE70D
:101D700040F23C51C2F200010120887206E040F2BC
:101D80003C51C2F2000100208872FFE706E040F2F9
:101D90003C51C2F2000100208872FFE74CF2203073
:101DA000C2F20100007840F23C51C2F200014872D8
:101DB0004CF26450C2F201000068007D08723CB031
:101DC00080BD00BF00BF00BF000000000080664073
:101DD00000000060FB2109400000B4439A99993E3D
:101DE0003333333FF0B58FB040F24751C2F20001B8
:101DF00000200870C820A1F815006420A1F8630035
:101E00004CF28700C3F61120C1F8750041F2C852A8
:101E1000C0F60202106851689368D2F80CC0D2F87C
:101E200010E054690B94CDF828E0CDF824C0089355
:101E3000079106909069D169126A0E920D910C90EB
:101E400006980799089A099BDDF828C00B9C0C9D01
:101E50000D9E0E9FEE46CEF81070CEF80C60CEF8B8
:101E60000850CEF80440CEF800C017F0B9F84CF294
:101E70006451C2F2010108600DF062F841F28C3148
:101E8000C2F2000108600FB0F0BD000080B584B060
:101E900003908DF80B10039840F20861C2F2000124
:101EA00008604DF6C451C2F2010101910020087092
:101EB00018F05AF80199024608781043087018F093
:101EC0003FF9019902460878104308709DF80B000D
:101ED00038B1FFE740F2D050C2F2000000F0E0FE5F
:101EE00020E040F2D051C2F2000143F6AC00C3F64C
:101EF0002230486241F2B060C3F6CE108862C862F8
:101F000041F23F60C4F21B10086391ED0C1A9FED83
:101F1000090A80EE010A81ED080A0020C4F220209F
:101F20008861FFE74DF6C450C2F20100007804B0AA
:101F300080BD00BFC3F51C4180B50020C4F2020083
:101F40001021012205F0E0FB80BD000080B50020DB
:101F5000C4F202001021002205F0D6FB80BD000073
:101F600080B540F20040C4F202000122114605F0A3
:101F7000CBFB80BD80B540F20040C4F202000121DD
:101F8000002205F0C1FB80BD80B584B00390FFF74F
:101F9000DDFF922000F078F94CF29031C2F201019D
:101FA00002911220062200F03BF9FFF7C5FF029BC9
:101FB0001878597840EA012040F20461C2F2000129
:101FC0000880B1F9000000EE100AB8EEC00A40F235
:101FD0000800C2F2000090ED001A20EE010A039AF8
:101FE00092ED081A20EE010A82ED000A9A7893F821
:101FF00003C042EA0C220A80B1F9002000EE102A48
:10200000B8EEC00A90ED001A20EE010A039A92ED94
:10201000081A20EE010A82ED010A1A795B7942EA78
:1020200003220A80B1F9001000EE101AB8EEC00ABF
:1020300090ED001A20EE010A039890ED081A20EEA8
:10204000010A80ED020AFFF795FF0299002008229D
:1020500000F0E6F8FFF784FF029800780F2840F0C0
:102060009E80FFE740F2FC40C2F2000000780028AA
:1020700050D0FFE74CF29033C2F201039878D97840
:1020800040EA012040F20461C2F200010880B1F987
:10209000000000EE100AB8EEC00A4CF20C00C2F2CA
:1020A000010090ED002A039A92ED091A20EE020A2F
:1020B00030EE410A82ED030A1A7993F805C042EA2C
:1020C0000C220A80B1F9002000EE102AB8EEC00AF6
:1020D00090ED002A039A92ED0A1A20EE020A30EEE1
:1020E000410A82ED040A9A79DB7942EA03220A80E6
:1020F000B1F9001000EE101AB8EEC00A90ED002AF7
:10210000039890ED0B1A20EE020A30EE410A80EDA2
:10211000050A43E04CF29033C2F201039878D97873
:1021200040EA012040F20461C2F200010880B1F9E6
:10213000000000EE100AB8EEC00A4CF20C00C2F229
:10214000010090ED001A20EE010A039A82ED030AC5
:102150001A7993F805C042EA0C220A80B1F90020EE
:1021600000EE102AB8EEC00A90ED001A20EE010A27
:10217000039A82ED040A9A79DB7942EA03220A8003
:10218000B1F9001000EE101AB8EEC00A90ED001A76
:1021900020EE010A039880ED050AFFE7FFE7FFF74D
:1021A000D5FEA22000F070F84CF29031C2F201018D
:1021B00001912220022200F033F8FFF7BDFE0199C1
:1021C00008784978C00040EA511140F20460C2F238
:1021D00000000180B0F90000B0F5806F09DBFFE777
:1021E00040F20461C2F200010888A0F50060088096
:1021F000FFE740F20460C2F20000B0F9000000EE18
:10220000100AB8EEC00AB4EE001A20EE010AB3EECE
:10221000071A30EE010A039880ED070A04B080BD6A
:1022200080B584B08DF80F0002918DF807209DF8DD
:102230000F0040F0800000F027F8FFE79DF807004E
:1022400070B1FFE7552000F01FF80299087002985E
:10225000013002909DF8070001388DF80700EDE786
:1022600004B080BD80B582B08DF8070000919DF864
:10227000070040F0800000F007F8552000F004F857
:102280000099087002B080BD80B582B08DF807005B
:1022900040F20860C2F2000000686A464FF47A71AA
:1022A00011600DF107010DF10602012308F0F2FBA8
:1022B0009DF8060002B080BD80B582B08DF80700A1
:1022C0008DF806109DF80700FFF7DEFF9DF8060069
:1022D000FFF7DAFF02B080BD80B582B08DF807004D
:1022E0009DF8070000EB800140F64400C2F20000B8
:1022F00000EBC100007F012810D1FFE79DF8070027
:1023000000EB800240F64400C2F2000000EBC20184
:1023100050F83200498B05F0E3F9FFE702B080BDC9
:1023200080B584B08DF80F000291029800680068B3
:10233000C006002840F18E80FFE702980068C06860
:10234000C006002840F18680FFE7FFE700200190EB
:102350000298006800680190029800684068019047
:102360000198FFE7029809F047FC9DF80F1040F232
:102370001440C2F2010050F82100007B70BBFFE75F
:102380009DF80F1040F21440C2F2010050F82120D5
:10239000012111739DF80F1050F82100D0F80D00A5
:1023A00068B1FFE79DF80F1040F21440C2F201003F
:1023B00050F821100868D1F80D108847FFE70298FF
:1023C0009DF80F2040F21441C2F2010151F8222081
:1023D0005168B2F811200AF03FF82DE09DF80F1077
:1023E00040F21440C2F2010050F821200021117384
:1023F0009DF80F1050F82100D0F80D0068B1FFE7EC
:102400009DF80F1040F21440C2F2010050F8211064
:102410004868D1F80D108847FFE702989DF80F2013
:1024200040F21441C2F2010151F822201168B2F8C1
:1024300011200AF011F8FFE7029800680068000711
:1024400038B1FFE7029800680068029800684068A9
:10245000FFE7FFE704B080BD80B582B0019001982E
:1024600040F21441C2F2010109688968884205D12D
:10247000FFE701990020FFF753FFFFE702B080BD9F
:1024800083B0029001910092009890ED004A90ED87
:10249000010A90ED026A90ED035A26EE062AB6EE86
:1024A000001A31EE422A25EE053A32EE432A02980E
:1024B00024EE057A20EE063A33EE477AD0ED000A94
:1024C000D0ED011A90ED023A27EE217A22EE202A71
:1024D00032EE072A24EE064A20EE050A30EE040A00
:1024E00020EE030A30EE020A30EE000A019880ED79
:1024F000000A009890ED004A90ED016A90ED022AE2
:1025000090ED035A24EE053A26EE020A30EE030A55
:10251000029826EE063A31EE433A25EE057A33EE7E
:10252000477AD0ED000AD0ED011A90ED023A27EE7D
:10253000217A20EE200A30EE070A24EE064A22EE27
:10254000052A32EE442A22EE032A30EE020A30EE49
:10255000000A019880ED010A009890ED002A90EDA4
:10256000014A90ED023A90ED030A22EE036A24EE4E
:10257000005A35EE465A029822EE042A23EE000A4B
:1025800030EE020A90ED006A90ED017A90ED022A99
:1025900020EE070A25EE065A30EE050A24EE044A1C
:1025A00031EE441A23EE033A31EE431A21EE021AB9
:1025B00030EE010A30EE000A019880ED020A03B005
:1025C00070470000FFE7FEE780B540F66040C2F2CA
:1025D000000003F087FD80BD80B540F66040C2F288
:1025E000000003F07FFD80BD80B54DF6F850C2F2CB
:1025F000010003F077FD80BD80B54DF6F850C2F2C2
:10260000010003F06FFD80BD80B58CB00B90012000
:1026100007900021089141F28431C2F2000109784B
:10262000884305900E200A900B98C06A40010290E2
:102630000B98006840F66041C2F20001884209D15F
:10264000FFE74CF29832C2F201021078411C11707F
:10265000009008E040F21E02C2F200021078411C15
:1026600011700090FFE700980690012009900B98E8
:10267000006801A903F02CFB0CB080BD81B0009074
:102680000099002088750098006901B0704700002B
:102690002DE9F04FA7B006903A980590DDF8E4B028
:1026A000DDF8E0A0DDF8DC90DDF8D880359F349EC1
:1026B000339D329CDDF8C4E0DDF8C0C00698059873
:1026C00017900698CDF858B0CDF854A0CDF850909A
:1026D000CDF84C801297119610950F94CDF838E0F4
:1026E000CDF834C00C930B920A9109900DF1620061
:1026F00009A93A22FEF761FA272007901EF074FC20
:10270000079908900898FEF771FA9DF877000899E4
:1027100088729DF8770003300899C8729DF8770099
:10272000033019F0F7FE0899C8609DF87600089903
:1027300008719DF87600033019F0ECFE0899C1F895
:1027400006009DF876000330089948719DF87700DF
:1027500019F0E0FE089908610898D0F80610732077
:1027600008709DF876000899D1F80610487008980E
:10277000D0F806109DF8760001446520887008980E
:10278000CDF87200DDF86E0038B9FFE742F63D0083
:10279000C0F60000CDF86E00FFE7DDF86200DDF85E
:1027A0006610DDF86A20DDF86E30DDF872C0EE46A6
:1027B000CEF800C000F0B2F80899086042F60900AF
:1027C000C0F600001E90089822901E981F99209A2B
:1027D000219BDDF888C0239C249D259E269FEE46E4
:1027E000CEF81070CEF80C60CEF80850CEF8044049
:1027F000CEF800C016F0F4FB0899C1F8170008984D
:1028000027B0BDE8F08F000080B582B0019001983C
:102810000090009800F002F802B080BD80B582B050
:1028200001900199C868497DFEF7E0F901990020FF
:1028300008750199487502B080BD000080B582B06E
:1028400001900198D0F835000090019890F824008C
:10285000732812D1FFE70098007D70B9FFE7019857
:1028600090F825000099897A884204D1FFE7009901
:102870000120087500E04EE0FFE70098007D002889
:1028800049D0FFE70098C17A407D019A92F8302044
:102890001044884204DDFFE70098FFF7BFFF3AE0ED
:1028A0000099C868497D0844019A02F1240192F810
:1028B0003020FEF782F9019890F830200099487D89
:1028C000104448750098C17A407D884222D1FFE7C4
:1028D0000098C168C07A084410F8010C652815D129
:1028E000FFE7009A1069D1680231927AFEF765F924
:1028F0000099002008750099487500990120887595
:102900000098D0F8170001F0C1FEFFE70098FFF72C
:1029100085FF00E0FFE702B080BD000080B588B011
:10292000DDF828C0CDF81CC00693059204910390F1
:10293000392001901EF058FB019902900298FEF791
:1029400055F904980299486002990020C8600299DC
:102950000861029A08215161029908760398029948
:10296000086004980299C86105980299C86206989F
:102970000299C1F8310007980299C1F83500029810
:1029800090F8300028B9FFE70299082081F830005C
:10299000FFE7039840F66041C2F20001884206D189
:1029A000FFE740F2C870C2F20000007807E04DF681
:1029B0007452C2F201021078411C1170FFE70298B4
:1029C00041F28432C2F2000213784DF67851C2F21D
:1029D000010141F823001078411C117018B9FFE77C
:1029E00000F008F8FFE70298FFF70EFE029808B023
:1029F00080BD000080B584B040F66040C2F20000A7
:102A0000009003F04FFF00980221019103F08AF833
:102A100000981021029103F085F84DF6F850C2F2AB
:102A20000100039003F03EFF0199039803F07AF848
:102A30000299039803F076F804B080BD80B58CB09D
:102A40000B900A9109920A98039000200490059037
:102A50000690082107918DF8200002900B98099AA2
:102A600003A902AB03F088F88DF807009DF8070072
:102A70000CB080BD84B08DF80F000291ADF8062037
:102A80009DF80F000146009123281DD80099DFE82A
:102A900001F012131415161B1B1B1B1B1B1B1B1BEE
:102AA0001B1B1B1B1B1B1B1B1B1B1B1B1B1B1B1B76
:102AB0001B1B1718191A08E007E006E005E004E000
:102AC00003E002E001E000E0FFE7002004B070470F
:102AD0000020704780B582B040F68410C2F200003A
:102AE00000904DF26A51C2F201010022019213F0EE
:102AF0004BF800984CF66A51C2F2010113F026F827
:102B0000019802B080BD000080B584B003900291AE
:102B1000039940F68410C2F20000019013F016F8F9
:102B2000019812F0B9FF0398029916F0CFF900202E
:102B300004B080BD83B0029001918DF80320002085
:102B40008DF802009DF9020003B0704780B586B091
:102B50000490ADF80E1000208DF80D0040F68410A2
:102B6000C2F20000D0F8BC0202900298D0F8140221
:102B700020B1FFE701208DF8170013E00499BDF89C
:102B80000E2040F68410C2F20000019012F0FCFF0B
:102B9000019813F003F98DF80D009DF80D008DF8E4
:102BA0001700FFE79DF8170006B080BD80B586B01E
:102BB00005900491FFE70598049903F05FF9002858
:102BC0006CD0FFE7059804994CF29C32C2F20102E6
:102BD00002AB03F07DF900208DF80700FFE79DF8B8
:102BE000070041F28431C2F200010978884254DAC8
:102BF000FFE705989DF807204DF67851C2F20101D4
:102C000051F822100968884240D1FFE74CF29C300D
:102C1000C2F2010000689DF807204DF67851C2F21B
:102C2000010151F82210C96A88422FD1FFE74CF206
:102C30009C31C2F201010A699DF807304DF67850C7
:102C4000C2F20100009050F8233083F830209DF844
:102C5000072050F8220024300A6902A9FDF7ADFFD1
:102C600000989DF8071050F82100D0F8310060B1AD
:102C7000FFE79DF807104DF67850C2F2010050F8BA
:102C80002100D0F831108847FFE707E0FFE79DF803
:102C9000070001308DF80700A1E78CE706B080BD82
:102CA00080B592B005A902911190002010900F906C
:102CB00007900690059001F0B9F84CF2CC30C2F2C2
:102CC000010080ED000AFFE701F0B0F84CF2CC30D3
:102CD000C2F2010090ED001A30EE410AB2EE081A7D
:102CE000B4EE410AF1EE10FA1ADDFFE7119943F64E
:102CF000AC00C3F622304862119941F2B060C3F6CD
:102D0000CE1088621199C862119941F23F60C4F2F5
:102D10001B10086311990020C4F220208861F5E29D
:102D20009FEDE30A01F030F8119900200863119932
:102D30004862119988621199C862ADF81200FFE7E4
:102D4000BDF812004CF22401C2F201010988884248
:102D500080F2E681FFE7FFF7F9F89220FFF794FA97
:102D600012200FA901910622FFF75AFAFFF7E4F8A3
:102D70009DF83C009DF83D1040EA0120ADF83A0076
:102D8000BDF93A0000EE100AB8EEC00A40F20800A1
:102D9000C2F2000090ED001A20EE010A119981EDB7
:102DA000000A9DF83E109DF83F2041EA0221ADF84F
:102DB0003A10BDF93A1000EE101AB8EEC00A90EDC4
:102DC000001A20EE010A119981ED010A9DF84010C8
:102DD0009DF8412041EA0221ADF83A10BDF93A10C0
:102DE00000EE101AB8EEC00A90ED001A20EE010AAB
:102DF000119880ED020A119890ED001A90ED012AC9
:102E000090ED020A22EE022A21EE011A31EE021A98
:102E100020EE000A30EE010A1DF0F7FA029880ED6C
:102E2000020A90ED021A119890ED0C0A30EE010A98
:102E300080ED0C0AFFF79EF8019900200822FFF7A9
:102E4000EFF9FFF78DF89DF83C000F285FD1FFE701
:102E50009DF83E009DF83F1040EA0120ADF83A0091
:102E6000BDF93A0000EE100AB8EEC00A4CF20C00B0
:102E7000C2F2010090ED001A20EE010A119981EDD5
:102E8000030A119991ED031A91ED090A30EE010A36
:102E900081ED090A9DF840109DF8412041EA022188
:102EA000ADF83A10BDF93A1000EE101AB8EEC00AAB
:102EB00090ED001A20EE010A119981ED040A119992
:102EC00091ED041A91ED0A0A30EE010A81ED0A0A29
:102ED0009DF842109DF8432041EA0221ADF83A10D6
:102EE000BDF93A1000EE101AB8EEC00A90ED001AC3
:102EF00020EE010A119880ED050A119890ED051A4F
:102F000090ED0B0A30EE010A80ED0B0AFFE7BDF8E9
:102F1000120038BBFFE7079806900798059000203D
:102F20008DF81100FFE79DF81100022819DCFFE77A
:102F300011989DF8112000EB8200C0680BA941F8A0
:102F4000220011989DF8112000EB8200C06808A9AA
:102F500041F82200FFE79DF8110001308DF81100C3
:102F6000E1E764E0029890ED020A90ED011AB4EEF8
:102F7000410AF1EE10FA03DDFFE707980690FFE73C
:102F8000029890ED020A90ED001AB4EE410AF1EEBB
:102F900010FA03DAFFE707980590FFE700208DF8A5
:102FA0001000FFE79DF8100002283FDCFFE71198B2
:102FB0009DF8101000EB810090ED030A0BA800EBC8
:102FC000810090ED001AB4EE410AF1EE10FA0ADD2C
:102FD000FFE711989DF8102000EB8200C0680BA954
:102FE00041F82200FFE711989DF8101000EB8100D6
:102FF00090ED030A08A800EB810090ED001AB4EEF2
:10300000410AF1EE10FA0ADAFFE711989DF8102054
:1030100000EB8200C06808A941F82200FFE7FFE743
:103020009DF8100001308DF81000BBE7FFE7029813
:1030300090ED010A90ED001A30EE410A40F60400CE
:10304000C2F2000080ED000A00208DF80F00FFE7BB
:103050009DF80F0002281DDCFFE79DF80F100BA85C
:1030600000EB810090ED000A08A800EB810090EDD4
:10307000001A30EE410A4DF6EC50C2F2010000EBAE
:10308000810080ED000AFFE79DF80F0001308DF808
:103090000F00DDE740F60400C2F2000090ED000AE8
:1030A000B6EE001AB4EE410AF1EE10FA2CDC01E0A3
:1030B0000AD7A33B4DF6EC50C2F2010090ED000A96
:1030C0009FED981AB4EE410AF1EE10FA1CDCFFE70E
:1030D0004DF6EC50C2F2010090ED010A9FED911AFD
:1030E000B4EE410AF1EE10FA0EDCFFE74DF6EC50BB
:1030F000C2F2010090ED020A9FED8A1AB4EE410A75
:10310000F1EE10FA01DDFFE70AE09FED870A00F01B
:103110003BFEFFE7BDF812000130ADF812000FE6EC
:103120004CF22400C2F20100008800EE100AB8EE52
:10313000401A119890ED0C0A80EE010A80ED0C0AFD
:1031400000208DF80E00FFE79DF80E0002281BDC22
:10315000FFE74CF22400C2F20100008800EE100AE2
:10316000B8EE401A11989DF80E1000EB810090ED1A
:10317000090A80EE010A80ED090AFFE79DF80E00BA
:1031800001308DF80E00DFE7FEF7E0FEA220FFF72A
:103190007BF822200FA90222FFF742F8FEF7CCFEAF
:1031A0009DF83C009DF83D10C00040EA5110ADF87C
:1031B0003A00BDF93A00B0F5806F07DBFFE7BDF8D4
:1031C0003A00A0F50060ADF83A00FFE7BDF93A001B
:1031D00000EE100AB8EEC00AB4EE001A20EE010AA2
:1031E000B3EE071A30EE010A119880ED060A4DF68B
:1031F0007251C2F20101088801300880FFE740F6F1
:103200000400C2F2000090ED000A0120B6EE001AA0
:10321000B4EE410AF1EE10FA009071DCFFE711986C
:1032200090ED0C0A9FED411A30EE010AB0EEC00A93
:103230000120B6EE001AB4EE410AF1EE10FA009049
:103240005EDCFFE74DF6EC50C2F2010090ED000AA3
:1032500001209FED341AB4EE410AF1EE10FA00900D
:103260004EDCFFE74DF6EC50C2F2010090ED010A92
:1032700001209FED2C1AB4EE410AF1EE10FA0090F5
:103280003EDCFFE74DF6EC50C2F2010090ED020A81
:1032900001209FED241AB4EE410AF1EE10FA0090DD
:1032A0002EDCFFE7119890ED090AB0EEC00A01206C
:1032B0009FED1F1AB4EE410AF1EE10FA00901FDCE8
:1032C000FFE7119890ED0A0AB0EEC00A01209FEDC9
:1032D000181AB4EE410AF1EE10FA009010DCFFE784
:1032E000119890ED0B0AB0EEC00A9FED111A002064
:1032F000B4EE410AF1EE10FAC8BF01200090FFE7DA
:103300000098C00700287FF4DFACFFE7119890ED2C
:103310000C1A9FED080A80EE010A80ED080A12B02F
:1033200080BD00BF9A99193E6F12033ACDCC1CC1E3
:103330000AD7233CC3F51C4183B00290019100924F
:103340000298019991ED013A91ED022A90ED010A5E
:1033500090ED021A21EE031A20EE020A30EE410A25
:10336000009880ED000A029890ED001A90ED020A94
:10337000019890ED002A90ED023A21EE031A20EE1A
:10338000020A30EE410A009880ED010A0298019984
:1033900091ED003A91ED012A90ED000A90ED011AAD
:1033A00021EE031A20EE020A30EE410A009880ED69
:1033B000020A03B07047000082B001908DF803103C
:1033C0009DF80300019981F82C009DF803000199F4
:1033D00081F82D0002B0704781B000900099012063
:1033E00081F84D0001B0704782B001908DF8031054
:1033F0009DF80300019981F82F0002B0704700008A
:1034000082B001908DED000A019890F82F000328FA
:1034100008DBFFE79DED000A019910EE100AC1F8E4
:103420003D0007E09DED000A019910EE100AC1F879
:103430003500FFE702B0704782B00190019800901C
:103440000099002081F84D0002B0704780B586B029
:10345000059004910392039840788DF80400039836
:1034600000888DF805000398C0788DF80600039851
:1034700040888DF80700039840798DF8080003987C
:1034800080888DF809000398C0798DF80A000398A8
:10349000C0888DF80B000598049901AAFFF7CEFAB1
:1034A00006B080BDF0B589B008905920059019F09C
:1034B00031F8059907900798FDF798FB0898007870
:1034C000079981F850000898D0F842000799C1F890
:1034D00051000898D0F846000799C1F855000798A0
:1034E00008990A310DF082FA089944F21500C0F6E5
:1034F0000000C1F8160007980899C1F81A00DDF815
:1035000020C0DCF80A00DCF80E10DCF81220DCF831
:103510001630DCF81AC0EE46CEF800C0FFF7FEF910
:103520000799C1F8220007982A30069008980130C0
:1035300016F0D0FE014606982322FDF73EFB0899BF
:1035400043F23940C0F60000C1F81E00089940F669
:103550000000C4F20200C1F8260008990A20C1F850
:103560003E0007980899C1F82E00DDF820E0DEF84B
:103570001E00DEF82210DEF82620DEF82A30DEF803
:103580002EC0DEF83240DEF83650DEF83A60DEF863
:103590003E70EE46CEF81070CEF80C60CEF80850B3
:1035A000CEF80440CEF800C015F01AFD0799C1F816
:1035B0002600089800890799088407984EF2351369
:1035C000C2F201031A78511C19704EF25011C2F266
:1035D000010141F822000798FFF7FEFE079809B0A5
:1035E000F0BD000080B54DF6E060C2F2010003F0CE
:1035F000B5FA80BD80B54DF62060C2F2010003F03F
:10360000ADFA80BD80B540F68840C2F2000003F0FC
:10361000A5FA80BD80B54DF68060C2F2010003F0CE
:103620009DFA80BD80B540F64850C2F2000003F01C
:1036300095FA80BD80B540F6E840C2F2000003F084
:103640008DFA80BD80B588B04DF64070C2F20100A1
:10365000079003F083FA079841F23C32C2F200026D
:10366000202182F84110012180F83510006846F2CF
:103670005941C4F20201884208D3FFE746F20C41E7
:10368000C4F202014FF40010086037E04DF64070BC
:10369000C2F20100006846F2B901C4F20201884298
:1036A00009D3FFE746F20841C4F202014FF40010CB
:1036B0000860069020E04DF64070C2F201000068FC
:1036C00046F25901C4F20201884209D3FFE746F2EB
:1036D0000C01C4F202014FF400100860059008E0EC
:1036E00046F20801C4F202014FF400100860059090
:1036F000FFE705980690FFE70698FFE74DF6407054
:10370000C2F20100006846F25941C4F20201884247
:1037100008D3FFE746F20C41C4F202014FF48010D7
:10372000086037E04DF64070C2F20100006846F2D2
:10373000B901C4F20201884209D3FFE746F2084109
:10374000C4F202014FF480100860049020E04DF6AE
:103750004070C2F20100006846F25901C4F2020151
:10376000884209D3FFE746F20C01C4F202014FF48C
:1037700080100860039008E046F20801C4F20201DC
:103780004FF4801008600390FFE703980490FFE770
:103790000498FFE74DF64070C2F20100006846F25F
:1037A0005941C4F20201884208D3FFE746F20C41B6
:1037B000C4F202014FF40020086037E04DF640707B
:1037C000C2F20100006846F2B901C4F20201884267
:1037D00009D3FFE746F20841C4F202014FF400208A
:1037E0000860029020E04DF64070C2F201000068CF
:1037F00046F25901C4F20201884209D3FFE746F2BA
:103800000C01C4F202014FF400200860019008E0AE
:1038100046F20801C4F202014FF400200860019052
:10382000FFE701980290FFE70298FFE7FFE74DF6F8
:103830004071C2F20101002081F83400FFE708B0B6
:1038400080BD000082B001900198007810384AF6DF
:10385000AB21CAF6AA21A0FB011000090090009933
:1038600041F6BC00C0F60200405C0199C8650098B2
:10387000042807D3FFE701990868042262F30900CE
:10388000886506E00199086840F2FF329043886538
:10389000FFE70198806D02B07047000086B0059088
:1038A00000208DF813000598806A039005988069C0
:1038B00010BBFFE70398029003281BD80299DFE8AA
:1038C00001F0020D0218059890F82F00C00720B1F2
:1038D000FFE701208DF81300FFE70CE00598C06AB0
:1038E000B0F1C07F04D1FFE701208DF81300FFE79E
:1038F00001E000E0FFE745E005988069B0F5005F72
:1039000025D1FFE70398019003281ED80199DFE82D
:1039100001F00206021101208DF8130016E005984F
:1039200090F82F00C00720B1FFE701208DF81300A9
:10393000FFE70BE00598C06AB0F1C07F04D1FFE754
:1039400001208DF81300FFE700E0FFE719E003987E
:103950000090032804D3FFE70098032804D00EE06A
:1039600001208DF813000BE0059890F82F00C00798
:1039700020B1FFE701208DF81300FFE700E0FFE72B
:10398000FFE7FFE79DF8130006B0704784B003908F
:1039900002910192009303980168086820F4802046
:1039A0000860009803990968486003988068402877
:1039B00009D1FFE701980399096888600298039983
:1039C0000968C86008E0029803990968886001984E
:1039D00003990968C860FFE704B0704782B001909E
:1039E0008DF803109DF803000199D1F82D1088700F
:1039F0009DF803000199D1F82D10C87002B07047EE
:103A000080B586B005900598243004900598D0F8CC
:103A100035000390039802900398D0F8250000F039
:103A200035FE04980178407840EA01200299088028
:103A300004988178C07840EA012000B200EE100AB4
:103A4000B8EEC00A9FED4D1A80EE010A029910EE01
:103A5000100AC1F8020004980179407940EA012077
:103A600000B200EE100AB8EEC00A9FED451A80EED3
:103A7000010A029910EE100AC1F806000498807934
:103A8000029948810498C07902998881029908882E
:103A9000C989401AADF80600BDF9060002990988E7
:103AA000884205D0FFE70299012081F82400FFE752
:103AB000029890F82400012818D1FFE7BDF906000C
:103AC000B0F57A6F05DDFFE70299088C01380884AC
:103AD0000BE0BDF9060010F57A6F05DAFFE70299F1
:103AE000088C01300884FFE7FFE7FFE702990888A8
:103AF0000A8C00EB423008830299B1F918004A8C15
:103B0000801A00EE100AB8EEC00A9FED1E1A20EED1
:103B1000010A10EE100AC8610299D1F802000A6980
:103B200000EE102A01EE100A9FED172A21EE021A6C
:103B30009FED162A20EE020A30EE010A10EE100A5E
:103B400008610299D1F806004A6900EE102A01EED8
:103B5000100A9FED0F2A21EE021A9FED0E2A20EE89
:103B6000020A30EE010A10EE100A48610299088B31
:103B7000488302990888C88106B080BD0000C84209
:103B800000007A444ED1113D9A99593F9899193EB7
:103B90006666663FD0CCCC3D81B000900099012094
:103BA00081F8310001B07047F0B589B008903C2031
:103BB000069018F0AFFC069907900798FDF716F8E5
:103BC0000898D0F84200079948630898D0F8460052
:103BD00007998863079808990A310CF0A1FF0899A2
:103BE00043F60120C0F60000C1F8160007980899B6
:103BF000C1F81A00DDF820C0DCF80A00DCF80E106D
:103C0000DCF81220DCF81630DCF81AC0EE46CEF8EC
:103C100000C0FEF783FE0799C1F82900089801301B
:103C200016F058FB0799C1F82D00089943F6055086
:103C3000C0F60000C1F81E0008990520C1F83E003A
:103C400007980899C1F82E00DDF820E0DEF81E0084
:103C5000DEF82210DEF82620DEF82A30DEF82EC04C
:103C6000DEF83240DEF83650DEF83A60DEF83E70BC
:103C7000EE46CEF81070CEF80C60CEF80850CEF8B4
:103C80000440CEF800C015F0ABF90799C1F8250043
:103C900008980089079948840798FFF77DFF0798DF
:103CA00041F28733C2F200031A78511C197040F2B6
:103CB000D871C2F2000141F82200079809B0F0BDA6
:103CC00082B001908DED000A0198D0F82D00407966
:103CD00003280ADBFFE79DED000A0198D0F82D10BC
:103CE00010EE100AC1F8130009E09DED000A0198DA
:103CF000D0F82D1010EE100AC1F80B00FFE702B04B
:103D00007047000082B00190019800900099002057
:103D100081F8310002B0704781B04CF2D030C2F26D
:103D20000100007870BBFFE74CF2D031C2F2010114
:103D30000120087041F20400CEF2000000680090FB
:103D400000984CF2C831C2F201010968884208D2D9
:103D5000FFE740F21061C2F200010868013008601C
:103D6000FFE741F20400CEF2000000684CF2C831D7
:103D7000C2F2010108604CF2D031C2F20101002010
:103D80000870FFE701B0704783B08DED020A41F281
:103D90000400CEF200000068019002980090FFE756
:103DA00041F20400CEF2000000680199401A00EED2
:103DB000100AB8EE400A9DED001A4CF2B830C2F27B
:103DC000010090ED002AB8EE422A21EE021AB4EE6C
:103DD000410AF1EE10FA01DAFFE7E1E703B07047BC
:103DE00080B584B0039041F20400CEF20000006878
:103DF0000290029803990968401A00EE100AB8EE82
:103E0000400A4CF2B830C2F2010090ED001AB8EE50
:103E1000411A80EE010A8DED010A029803990860AB
:103E2000FFF77AFF9DED010A04B080BD80B582B036
:103E300000F070F840F29870C2F2000090ED000AB5
:103E4000B8EE401A818800EE101AB8EEC00A9FED55
:103E50000B2A20EE020A30EE011AC08800EE100A8A
:103E6000B8EEC00A9FED062A20EE020A30EE010AE3
:103E70008DED010A9DED010A02B080BD6F12833AFB
:103E8000BD37863580B582B001904EF6FC51CEF23A
:103E90000001086840F08070086041F20401CEF231
:103EA00000010020086041F20002CEF20002116819
:103EB00041F001011160019944F24022C0F20F0269
:103EC0004A434CF2B831C2F201010A600A6844F672
:103ED000D353C1F26203A2FB0332920940F20C6396
:103EE000C2F200031A6009684DF68362C4F21B3205
:103EF000A1FB0221890C4CF2BC32C2F2010211601A
:103F000040F21061C2F200010860FFF705FF02B045
:103F100080BD0000B0B586B041F20400CEF20000D2
:103F200000680590FFF7F8FE40F21060C2F2000052
:103F300001680598002302934FF0FF3C1A46E1FB0D
:103F40000C024CF2C031C2F2010100914A600860DB
:103F5000086849684CF2B834C2F201042268FCF7E0
:103F6000FBFD029B02468C46009940F21860C2F2AB
:103F70000000C0F804C00260D1F800C04968D0F861
:103F800000E042682468AEFB04E502FB0452BCEB8F
:103F90000E0C61EB02024CF2D831C2F20101039126
:103FA000C1F800C04A60006840F29872C2F2000294
:103FB000049210600868496840F20C62C2F2000284
:103FC00001921268FCF7C8FDDDF804C0029B049A58
:103FD000014603989180016840689288DCF800C02F
:103FE00002FB0CF28A1A60F1000040F22061C2F27A
:103FF00000010A604860086849684CF2BC32C2F2AD
:1040000001021268FCF7A8FD0499C88006B0B0BD93
:104010007047000080B586B0059005982430049064
:104020000598D0F835000390039802900398D0F8D3
:10403000260000F02BFB04980178407840EA01202C
:104040000299088004988178C07840EA012002999A
:10405000A1F8050004980179407940EA012002990D
:10406000A1F80700039890F85000032804D1FFE757
:1040700002990020487204E00498807902994872FD
:10408000FFE7029908884988401AADF80600BDF993
:10409000060002990988884204D0FFE702990120AE
:1040A0000871FFE702980079012818D1FFE7BDF9F0
:1040B0000600B0F57A6F05DDFFE7029948890138FF
:1040C00048810BE0BDF9060010F57A6F05DAFFE7CD
:1040D0000299488901304881FFE7FFE7FFE702992D
:1040E000B1F90A20088800EB42304861029948691A
:1040F0000A8C801A00EE100AB8EEC00A9FED1E1A54
:1041000020EE010A10EE100AC8610299C86800EE9C
:10411000100AB1F9050001EE100AB8EEC11A9FEDC0
:10412000172A21EE021A9FED162A20EE020A30EE1F
:10413000010A10EE100AC8600299086900EE100A20
:10414000B1F9070001EE100AB8EEC11A9FED0D2A71
:1041500021EE021A9FED0C2A20EE020A30EE010A2F
:1041600010EE100A0861029948698861029908886E
:10417000488006B080BD00BF0000343D9A99593F89
:104180009899193E6666663FD0CCCC3D80B584B028
:1041900011EE900A039011EE100A029010EE900AB0
:1041A000019010EE100A00900099019800EE101A8C
:1041B00001EE100A21EE011A20EE000A30EE010A8B
:1041C00010EE100AFCF72FFF41EC100B1CF0E0F88A
:1041D00051EC100BFCF73AFF00EE100A04B080BD62
:1041E00082B0019000910199009891ED001A91ED33
:1041F000013A91ED020A90ED004A90ED015A90EDDE
:10420000022A23EE053A21EE041A31EE031A20EEBB
:10421000020A30EE010A02B07047000080B50820A3
:1042200003F066F880BD000080B5102003F060F850
:1042300080BD000080B5202003F05AF880BD00004A
:1042400083B0029001910092009890ED004A90EDA9
:10425000012A90ED026A90ED035A26EE060AB6EEA8
:10426000001A31EE400A25EE053A30EE437A029804
:1042700024EE053A22EE060A30EE030AD0ED000ADB
:10428000D0ED011A90ED023A20EE210A27EE207AB5
:1042900030EE070A24EE064A22EE052A32EE442AC0
:1042A00022EE032A30EE020A30EE000A019880ED79
:1042B000000A009890ED004A90ED016A90ED020A24
:1042C00090ED035A24EE053A26EE002A32EE432AF8
:1042D000029826EE063A31EE433A25EE057A33EEA1
:1042E000477AD0ED000AD0ED011A90ED023A27EEA0
:1042F000217A22EE202A32EE072A24EE064A20EE08
:10430000050A30EE040A20EE030A30EE020A30EE0F
:10431000000A019880ED010A009890ED005A90ED96
:10432000014A90ED023A90ED032A25EE036A24EE4D
:10433000020A30EE060A029825EE045A23EE022AFB
:1043400032EE455A90ED006A90ED017A90ED022A26
:1043500025EE075A20EE060A30EE050A24EE044A3E
:1043600031EE441A23EE033A31EE431A21EE021ADB
:1043700030EE010A30EE000A019880ED020A03B027
:104380007047000072B6FFE7FEE7000083B00290BE
:104390008DF80710002000909DF8070018B9FFE77E
:1043A0000020009017E09DF80700012804D1FFE7E6
:1043B0004FF4807000900DE09DF80700022804D1B2
:1043C000FFE74FF40070009003E04FF4407000905E
:1043D000FFE7FFE7FFE743F61041C4F20201086878
:1043E00020F440700860009A08681043086008686C
:1043F00020F0F8000860029A086840EAC20040F025
:1044000002000860086840F48030086003B070471C
:1044100043F60040C4F202000068800500281FD562
:10442000FFE743F60041C4F20201086820F400707F
:104430000860FFE743F60041C4F20201086840F457
:1044400000600860086820F400600860FFE743F639
:104450000041C4F20201086840F400700860FFE700
:1044600043F60040C4F202000068400500281FD552
:10447000FFE743F60041C4F20201086820F48060BF
:104480000860FFE743F60041C4F20201086840F407
:1044900080500860086820F480500860FFE743F609
:1044A0000041C4F20201086840F480600860FFE740
:1044B0007047000080B502F021FE80BD43F60C403D
:1044C000C4F202000068C00600280FD5FFE741F2E1
:1044D000A031C2F20001C86940F01000C86143F683
:1044E0000C41C4F2020110200860FFE743F60C40C3
:1044F000C4F202000068800600280FD5FFE741F2F1
:10450000A031C2F20001C86940F00800C86143F65A
:104510000C41C4F2020120200860FFE743F60C4082
:10452000C4F202000068400600280FD5FFE741F200
:10453000A031C2F20001C86940F00400C86143F62E
:104540000C41C4F2020140200860FFE743F60C4032
:10455000C4F202000068000600280FD5FFE741F210
:10456000A031C2F20001C86940F00200C86143F600
:104570000C41C4F2020180200860FFE743F60C40C2
:10458000C4F202000068800700280FD5FFE741F25F
:10459000A031C2F20001C86940F02000C86143F6B2
:1045A0000C41C4F2020102200860FFE770470000DE
:1045B00080B582B001908DED000A01982C30FFF794
:1045C0000FFC019880ED0A0A009801990861019892
:1045D00090ED031A90ED040A30EE410A80ED050AD1
:1045E000019890ED050A90ED072A90ED0A1A30EE39
:1045F000420A80EE010A80ED060A019890ED003A29
:1046000090ED014A90ED022A90ED040A90ED051A12
:1046100021EE041A20EE030A30EE011A90ED060A8C
:1046200020EE020A30EE010A80ED080A01990869BD
:10463000C86001994869C861019890ED080A90ED39
:10464000091AB1EE411AB4EE410AF1EE10FA08DA95
:10465000FFE7019890ED090AB1EE400A80ED080AE3
:10466000FFE7019890ED080A90ED091AB4EE410AAF
:10467000F1EE10FA04DDFFE70199486A0862FFE7EE
:10468000019890ED080A02B080BD000080B582B0AC
:104690000190019900204862019901200875019854
:1046A000006AB0B1FFE70198C06990B1FFE70198D7
:1046B000C169006A884728B1FFE7019901200875A0
:1046C000009004E00199022008750090FFE700982F
:1046D00000E0FFE70198C06838B1FFE70199C868BA
:1046E000498A012203F010F8FFE702B080BD000004
:1046F00084B002900191ADF80220029828B9FFE73A
:104700004FF6FF70ADF80E0021E0FFE70198411E63
:104710000191B8B1FFE70298411C029100788DF831
:104720000100BDF802109DF801004840C2B241F6F8
:104730007620C0F6020030F8120080EA1120ADF8B1
:104740000200E3E7BDF80200ADF80E00FFE7BDF898
:104750000E0004B07047000082B001908DF8031085
:104760008DF80220FFE79DF80300411E8DF803102D
:1047700098B1FFE79DF8020001994A1C019209785F
:1047800048408DF801009DF8011041F2BC70C0F660
:104790000200405C8DF80200E5E79DF8020002B0DF
:1047A0007047000080B590B007A8039080ED080A1C
:1047B000C0ED070A80ED061AC0ED051A0E98FCF749
:1047C00032FC41EC100B8DED040B0F98FCF72BFC29
:1047D0009DED040B41EC110B1AF09EFF51EC100BF8
:1047E000FCF734FC08900E980B9000208DF81B000D
:1047F000FFE79DF81B0013284CDCFFE70B98FCF744
:1048000012FC41EC100B8DED000B0F98FCF70BFC2C
:104810009DED000B41EC110B1AF07EFF51EC100BDB
:10482000FCF714FC01460398079190ED080AD0EDBF
:10483000060A90ED001AD0ED051A16F085F80398D7
:1048400080ED030A90ED070A90ED031A30EE410A5D
:104850009FED191A20EE010A80ED020A90ED040A7C
:1048600090ED021A30EE010A80ED040A90ED020A82
:10487000B0EEC00A9FED111AB4EE410AF1EE10FA43
:1048800001DAFFE706E0FFE79DF81B0001308DF835
:104890001B00AEE7039890ED000A90ED011A30EE90
:1048A000410A9FED071A20EE010A9FED061A80EEDD
:1048B000010A10B080BD00BF9A99993E17B7D13850
:1048C00000003443DB0F494080B584B047F6102028
:1048D000C1F6FF700068039047F61420C1F6FF7020
:1048E0000068029047F61820C1F6FF70006801903A
:1048F0000199039808440390039888B1FFE703984F
:104900004CF20031C2F201010091023108220AF09A
:1049100097FD00990298123104220AF091FDFFE7F9
:1049200004B080BD0000000080B58CB08DED0A0A97
:10493000CDED090A8DED081A40F24750C2F2000091
:104940000190D0F8750000EE100A9DED0A1A20EED5
:10495000010A10EE100AFCF766FB41EC100B1BF08D
:104960003FFA51EC100B9FED260B53EC102BFCF78C
:104970005FF90246019802920A46029942EC101B26
:104980008DED040BD0F8750000EE100A9DED091AAC
:1049900020EE010A8DED030A9DED080A1BF078F95F
:1049A000B0EE401A9DED030A20EE010A10EE100A47
:1049B000FCF739FB9DED041B41EC100B51EC110B86
:1049C00053EC102BFCF74DFA41EC100B51EC100B93
:1049D000FCF73CFB07909DED070AB5EE400AF1EEAF
:1049E00010FA04DAFFE7002007900B9002E0079826
:1049F0000B90FFE79DED0B0A0CB080BD00BF00BF20
:104A0000000000000000F0BF2DE9F04FADB041F60E
:104A10001020C0F6020021210DF06AFA40F60801CC
:104A2000C2F20001086041F6F510C0F602000A214A
:104A30000FF0AEFB4DF6E851C2F20101086041F6FD
:104A40001B20C0F602000F210DF052FA41F61011A2
:104A5000C2F20001086041F60320C0F602000721FF
:104A60000FF096FB4EF26821C2F20101086041F29C
:104A7000EC51C0F602010DF17A000B903A220C9233
:104A8000FCF79BF80B990C9A0FA8FCF796F80F9877
:104A90000E901099119A129BDDF84CC0149C159D34
:104AA000169E179FDDF86080DDF86490DDF868A041
:104AB000DDF86CB01C980D901D98EE46CEF82800DD
:104AC0000D98CEF824000E98CEF820B0CEF81CA099
:104AD000CEF81890CEF81480CEF81070CEF80C6096
:104AE000CEF80850CEF80440CEF800C0FDF7D0FD57
:104AF00040F2CC71C2F20001086041F6FD01C2F241
:104B00000001012008704EF24011C2F201010020A4
:104B1000087040F29471C2F20001087015F086FE30
:104B20004EF23821C2F2010108600AF009FA41F29E
:104B30008831C2F2000108602DB0BDE8F08F00009E
:104B400080B592B04DF6D450C2F201000168002049
:104B5000C87041F6AC10C2F200000078002840F0A6
:104B60009D80FFE741F29030C2F200000A90016898
:104B7000486A496B00EE101A4DF6D451C2F2010199
:104B80000B910968896800EE901A01EE100A40F254
:104B9000B400C2F200000F9050300CF07DFF0B9873
:104BA0000068806800EE100A4CF27800C2F2010042
:104BB000FFF7FEFC0A990F9840F24C72C2F2010214
:104BC00082ED000A0968496A00EE101AD0ED240A45
:104BD0004CF2A800C2F20100109048300CF0A8FD81
:104BE000109890ED210ABDEEC00A10EE100A40F2B6
:104BF0002E62C2F2000210804DF6F850C2F201009F
:104C0000119040F2FF11FEF721FC0B9A0F9841F230
:104C1000C431C2F200010C910B681969DB6900EE26
:104C2000103A1268526800EE902A01EE101A9FEDB9
:104C30007B2A8DED0D2A21EE021AB3EE0E2A8DEDA0
:104C40000E2A81EE021A00F5A0700CF025FF0C9AD6
:104C50009DED0D2A9DED0E1A0F991098126812699C
:104C600000EE102A20EE020A80EE010AD1ED600A61
:104C700000F590700CF05CFD1099119891ED570AB9
:104C8000BDEEC00A10EE101A4CF2E632C2F201027A
:104C9000118040F2FE31FEF7D9FBA9E041F29030DD
:104CA000C2F2000002900168486A496B00EE101AD7
:104CB0004DF6D451C2F2010103910968896800EEF2
:104CC000901A01EE100A40F2B400C2F20000079000
:104CD00050300CF0E1FE03980068806800EE100A86
:104CE0004CF27800C2F20100FFF762FC029A0398CE
:104CF000079940F24C73C2F2010383ED000A126877
:104D0000526A00EE102A91ED242A0068D0F81900AA
:104D100001EE100AB6EE003A21EE031A71EE020A15
:104D20004CF2A800C2F20100089048300CF000FDDF
:104D3000089890ED210ABDEEC00A10EE100A40F26C
:104D40002E62C2F2000210804DF6F850C2F201004D
:104D5000099040F2FF11FEF779FB079841F2C43148
:104D6000C2F2000104910A681169D26900EE102AAA
:104D700040F63C02C2F20002126800EE902A01EEF8
:104D8000101A9FED262A8DED052A21EE021AB3EEA8
:104D90000E2A8DED062A81EE021A00F5A0700CF0A5
:104DA0007BFE049A9DED052A9DED061A0799089849
:104DB0001268126900EE102A20EE020A80EE010A43
:104DC000D1ED600A00F590700CF0B2FC08990998DA
:104DD00091ED570ABDEEC00A10EE101A4CF2E63201
:104DE000C2F20102118040F2FE31FEF72FFBFFE715
:104DF0004CF2A800C2F201000190D8300DF012F878
:104E000001980DF00FF8019800F5B4700DF00AF854
:104E1000019890300DF006F812B080BDDB0F4940CC
:104E200010B5A8B040F62D01C2F20001002001909B
:104E300008814860086041F6F510C0F602000A21BA
:104E40000DF056F84DF6D851C2F20101086041F656
:104E50001020C0F60200212100910FF099F90146BF
:104E6000009840F63802C2F20002116017F052FBBF
:104E7000009902464DF6D450C2F20100026000686B
:104E8000FBF7B4FE0AF05CF841F29031C2F2000187
:104E90000291086015F0CAFC0199024602984EF290
:104EA0003C23C2F201031A6005228DF856208DF8CA
:104EB00057108DF8581001238DF859308DF85A305D
:104EC0008DF85B104FF0030E8DF85CE08DF85D10EF
:104ED00041F24732ADF85E204DF6F85CC2F2010CAB
:104EE000CDF860C0199340F201321A921B911C91C7
:104EF0001D911E911F914FF40052ADF88020219119
:104F0000ADF890106824239446F65014C6F2743419
:104F10002294259104682C34269404681C34279428
:104F20008DF80C308DF80D108DF80E108DF80F10D7
:104F30008DF810108DF811108DF812E08DF8131007
:104F40004FF47A6EADF814E0CDF816C0CDF81A30F3
:104F5000CD23CDF81E30CDF82210CDF82610CDF897
:104F60002A10CDF82E10CDF83210ADF83620CDF83D
:104F70003A10ADF84610CDF8421046F25912C0F280
:104F80007702CDF83E20CDF84A1001683431CDF8D3
:104F90004E1000682430CDF852000DF15600FEF797
:104FA00003FE41F2C431C2F20001086003A8FEF71B
:104FB00079FA4EF25471C2F20101086028B010BDB6
:104FC00080B58EB04DF6D450C2F201000068007D6D
:104FD000A8B9FFE74EF25470C2F2010000680088E1
:104FE0004FF47A610CF0CCFF00EE100AB8EEC00A64
:104FF0004CF2F030C2F2010080ED000A14E04EF2F3
:105000005470C2F20100006800884FF4FD510CF0AA
:10501000B7FF00EE100AB8EEC00A4CF2F030C2F250
:10502000010080ED000AFFE741F2C430C2F2000047
:10503000006800884DF6D451C2F201010D91096853
:10504000C96800EE101ABDEEC00A10EE101A0CF07E
:1050500097FF01460D9800EE101AB8EEC00A40F214
:105060003861C2F2000181ED000A0068C0780428AE
:105070000AD0FFE74DF6D450C2F201000068C078B4
:10508000022840F09280FFE74EF25470C2F2010015
:1050900007900068018800EE101AB8EE400A4CF242
:1050A000F031C2F20101D1ED000AC06801EE100A30
:1050B00040F2B400C2F200000B90A0300CF0ECFC07
:1050C00007990B980968C96800EE101AD0ED380AE4
:1050D0004CF2A800C2F201000C9090300CF028FBBA
:1050E0000B980C9991ED330ABDEEC00A10EE101A20
:1050F0004CF2F432C2F20102118040F23861C2F285
:10510000000191ED000A41F2C431C2F200010891A0
:105110000A68528C01EE102AB8EEC11A30EE410A2C
:105120009FED681A20EE010A41F2C832C2F2000275
:1051300082ED000A0B681969DB6900EE103AD2EDC6
:10514000000A01EE101A9FED602A8DED092A21EE6A
:10515000021AB3EE0E2A8DED0A2A81EE021A00F52C
:10516000A0700CF099FC089A9DED092A9DED0A1A91
:105170000B990C981268126900EE102A20EE020AB0
:1051800080EE010AD1ED600A00F590700CF0D0FAC3
:105190000C9890ED570ABDEEC00A10EE100A40F2CE
:1051A0003C61C2F20001088066E04EF25470C2F227
:1051B000010003900068018800EE101AB8EE400A62
:1051C0004CF2F031C2F20101D1ED000AC06801EEEB
:1051D000100A40F2B400C2F2000005900CF05CFC32
:1051E000039905980968C96800EE101AD0ED100AF5
:1051F0004CF2A800C2F2010006900CF099FA059852
:10520000069991ED0F0ABDEEC00A10EE101A4CF28D
:10521000F432C2F20102118041F2C431C2F2000143
:10522000049109680A8800EE102AB8EE400A40F29C
:105230003862C2F20002D2ED000A096901EE101ACA
:10524000F0300CF029FC049A05990698126812694E
:1052500000EE102AD1ED4C0AD8300CF069FA06980D
:1052600090ED450ABDEEC00A10EE100A40F23C6116
:10527000C2F200010880FFE74DF6F850C2F20100CB
:1052800001904CF2F432C2F2010240F2FF11FEF73B
:10529000DDF8019840F23C62C2F2000240F2FE31B9
:1052A000FEF7D4F84CF2A800C2F20100029000F51B
:1052B00090700CF0B7FD029848300CF0B3FD0EB0C2
:1052C00080BD00BF4ED1113DDB0F494080B582B09B
:1052D00001900198D0F835000090019B188E41F69E
:1052E0008801C2F200018881586A9A6ADB6A8B6081
:1052F0004A60086000990020087500994875009977
:10530000012088750098D0F81700FFF7BFF902B0A8
:1053100080BD000080B582B04CF2FC32C2F20102C6
:105320000020108040F24461C2F200010091088028
:105330004DF6F850C2F20100019040F2FF11FEF765
:1053400085F8009A019840F2FE31FEF77FF802B02E
:1053500080BD00000000000080B582B08DED010A24
:10536000CDED000A4CF20C42C2F20102B2F900008B
:10537000411C118090B9FFE741F29030C2F2000069
:105380000068406B00EE100ABDEEC00A10EE100A75
:1053900040F25061C2F200010880FFE74CF2E430B5
:1053A000C2F20100007801283DD1FFE741F29030C0
:1053B000C2F200000068406B00EE100A40F250603C
:1053C000C2F20000B0F9000001EE100AB8EEC11AF6
:1053D00030EE410A10EE100AFBF725FE41EC100BEF
:1053E00051EC100B9FED2A0B52EC103BD20F62F3E5
:1053F000DF7141EC100B51EC100B9FED270B53ECC0
:10540000102BFBF7B8FD70B9FFE7AFF3008040F257
:10541000A071C2F20001002008704CF2E431C2F227
:1054200001010870FFE74EF25470C2F201000068FB
:10543000C06840F24C61C2F20001086041F2903055
:10544000C2F200000068406A40F24C71C2F20101F1
:1054500008604CF21040C2F2010090ED000A9DED90
:10546000001A20EE010ABDEEC00A10EE100A4CF23E
:105470000442C2F2010210804DF6F850C2F201005F
:1054800040F2FF110BF086FA02B080BD00BF00BFF2
:105490000000000000000000000000000000F03FDD
:1054A00080B584B040F63800C2F2000000684DF6C6
:1054B000D451C2F2010109680EF052FE012810D049
:1054C000FFE74EF25470C2F201000168002081F83B
:1054D0004D0041F2C431C2F20001096881F8310087
:1054E00021E141F2C430C2F200000068D0F825008A
:1054F000007D012815D1FFE740F62D01C2F2000121
:10550000012008704EF25470C2F201000068008859
:10551000488041F2C430C2F20000006800888880F0
:105520000CE040F62D01C2F20001002008704DF69B
:10553000D451C2F2010109680870FFE74DF6D4505A
:10554000C2F2010002680021C2F81D100068007854
:1055500001460391042800F2A5800399DFE801F0D9
:1055600003A21B6D9B004EF25470C2F20100016851
:10557000002081F84D0041F2C431C2F200010968F7
:1055800081F8310040F62D01C2F20001C1F8060099
:10559000FFF7C0FE98E04EF25470C2F201000068BE
:1055A000FDF71AFF41F2C430C2F200000068FEF7B6
:1055B000F3FA4DF6D450C2F2010000684078022898
:1055C00012D0FFE74EF25470C2F2010000680121D0
:1055D0000291FDF7F1FE029941F2C430C2F20000DF
:1055E0000068FEF7FBF9FFE74EF25470C2F20100CB
:1055F00000684DF6D451C2F2010101910968896831
:1056000000EE101AFDF7FCFE019941F2C430C2F21F
:10561000000000680968496800EE101AFEF750FBA8
:10562000FFF78EFA13F046FE01980068406841F2D9
:10563000C831C2F20001086046E04EF25470C2F276
:1056400001000068FDF7C8FE41F2C430C2F200005C
:105650000068FEF7A1FA4DF6D450C2F201000068CE
:105660004078032812D0FFE74EF25470C2F20100D6
:10567000006800210091FDF79FFE009941F2C430BF
:10568000C2F200000068FEF7A9F9FFE7FFF798FCF7
:1056900013F010FE18E09FED250ADFED250AFFF755
:1056A0005BFE11E04EF25470C2F20100016800206E
:1056B00081F84D0041F2C431C2F20001096881F85D
:1056C0003100FFF727FEFFE740F23C51C2F2000134
:1056D0000020887241F2C430C2F200000068C06944
:1056E0004EF28411C2F20101086041F29030C2F220
:1056F00000000068806A41F2C031C2F20001086017
:105700004DF6D450C2F201000068007840F62D0139
:10571000C2F2000148704DF6D850C2F20100006894
:105720000CF0C0FBFFE704B080BD00BF000000002C
:1057300000606A4680B586B040F2CC70C2F20000CC
:1057400005900068FCF79AFF84460598BCF80C1099
:1057500041F68802C2F200029181DCF80010DCF808
:105760000430DCF808C0C2F808C05360116000685B
:10577000D0F81700007D01280ED0FFE740F60C019D
:10578000C2F200010020C1F81D004EF25121C2F208
:105790000101C1F80B0016E041F68800C2F20000DA
:1057A000016840F60C02C2F20002C2F81D10D0F8E7
:1057B0000A204EF25121C2F20101C1F80B200089EA
:1057C000A1F80900FFE74DF6E850C2F201000068B9
:1057D0004DF6DC51C2F2010104910EF0C1FC0498B7
:1057E0000078012807D0FFE740F60C01C2F2000163
:1057F00000200870FFE740F29470C2F200000078C9
:10580000012807DBFFE741F6FD01C2F2000100209D
:105810000870FFE740F29470C2F20000007801289F
:105820001AD1FFE740F25260C2F200000188013154
:105830000180B0F9000014280DDBFFE740F29471FD
:10584000C2F200010220087041F6FE01C2F200011E
:1058500001208871FFE718E040F29470C2F2000066
:105860000078022810D1FFE74CF20E40C2F201008E
:10587000018801310180B0F900000A2803D1FFE757
:1058800017F04CFCFFE7FFE7FFE74EF26820C2F29B
:105890000100006841F69C11C2F2000103910EF074
:1058A0005FFC03980078012807D0FFE74EF25121F2
:1058B000C2F2010101200870FFE74EF23820C2F267
:1058C00001000068D0F87900007D012807D0FFE7CB
:1058D00041F6FD01C2F2000100200870FFE74EF220
:1058E0003820C2F201000068D0F87900007D01285C
:1058F00015D1FFE741F6FD00C2F20000007870B953
:10590000FFE740F29470C2F20000007838B9FFE778
:1059100041F6FD01C2F2000101200870FFE741F6E7
:10592000FD00C2F20000007818B9FFE717F0FEFB97
:10593000C7E041F6FD00C2F20000007801286ED1F8
:10594000FFE74DF6DC50C2F201000078012865D176
:10595000FFE740F25460C2F200000188013101808B
:1059600000881D282CDCFFE74DF6DC50C2F2010058
:105970004088B0F5BD5F10DCFFE74DF6DC50C2F2A9
:1059800001004088B0F5F46F07DDFFE740F60C0139
:10599000C2F200010020087506E040F60C01C2F2D8
:1059A000000101200875FFE740F60C01C2F200017A
:1059B0000020087043F60000C4F29A50C8602CE042
:1059C00040F25460C2F200000088B0F57A7F07DA36
:1059D000FFE740F60C01C2F20001032008701BE053
:1059E00040F25461C2F200010020088041F6FD013E
:1059F000C2F200010220087040F60C01C2F2000160
:105A0000087041F28830C2F200000268526B8A606E
:105A10000068806A4860FFE7FFE7FFE750E041F673
:105A2000FD00C2F200000078022848D1FFE74EF2E4
:105A30003820C2F20100006890F878000146029117
:105A4000012808D0FFE70298022816D0FFE7029845
:105A5000032809D032E017F02BF841F6FE01C2F21C
:105A600000010020887129E014F0DEFF41F6FE01FC
:105A7000C2F200010020887120E040F60C01C2F261
:105A80000001002008704EF25122C2F20102107093
:105A90004EF24822C2F20102D07041F28830C2F2C6
:105AA00000000268526B8A600068806A486041F6B4
:105AB000FE01C2F2000101208871FFE7FFE7FFE766
:105AC000FFE74EF24820C2F20100C07840F60C0217
:105AD000C2F20002019290704EF25121C2F2010115
